:020000040800F2
:1000000020080020B5010008B92A000829210008AD
:10001000B52A0008D5020008CD2A0008000000001B
:10002000000000000000000000000000C12A0008DD
:10003000D902000800000000BD2A0008C52A0008F7
:10004000CF010008CF010008CF010008CF01000850
:10005000CF010008CF010008CF010008CF01000840
:10006000CF010008CF010008CF010008CF01000830
:10007000CF010008CF010008CF010008CF01000820
:10008000CF010008CF010008CF010008CF01000810
:10009000CF010008CF010008CF010008CF01000800
:1000A000CF010008CF010008CF010008CF010008F0
:1000B000CF010008CF010008CF010008CF010008E0
:1000C000CF010008CF010008CF010008CF010008D0
:1000D000CF010008CF010008CF010008CF010008C0
:1000E000CF010008CF010008CF01000800F002F89E
:1000F00000F050F814A696E8000CB244B344DA4578
:1001000001D100F047F8BAE80F000FA696E83000DA
:10011000A5EB040504EB0607AAEB0704A7F101070A
:100120004FEA15154FEA3414A4F10104AC4201D38F
:1001300000F030F813F0010F18BFFB1A43F0010371
:1001400000F001F8DBE71847B85F0000D85F000057
:10015000103A24BF78C878C1FAD8520724BF30C8F3
:1001600030C144BF04680C60704700007047000055
:100170000023002400250026103A28BF78C1FBD8B0
:10018000520728BF30C148BF0B6070471FB51FBD65
:1001900010B510BD00F063F81146FFF7F7FF03F04C
:1001A000C7FE00F081F803B4FFF7F2FF03BC00F0D4
:1001B00089F800000948804709480047FEE7FEE744
:1001C000FEE7FEE7FEE7FEE7FEE7FEE7FEE7FEE707
:1001D00004480549054A064B70470000C92A000833
:1001E000ED0000082002002020080020200400204C
:1001F0002004002010B5203AC0F00B80B1E8185060
:10020000A0E81850B1E81850A0E81850203ABFF400
:10021000F5AF5FEA027C24BFB1E81850A0E818509F
:1002200044BF18C918C0BDE810405FEA827C24BFF3
:1002300051F8043B40F8043B08BF7047D20728BF81
:1002400031F8023B48BF11F8012B28BF20F8023BD0
:1002500048BF00F8012B70477047704770477546DC
:1002600000F02CF8AE4605006946534620F0070022
:10027000854618B020B5FFF7ABFFBDE820404FF032
:1002800000064FF000074FF000084FF0000BAC469F
:10029000ACE8C009ACE8C009ACE8C009ACE8C009EA
:1002A00021F007018D46704710B50446AFF300807A
:1002B0002046BDE81040FFF776BF000000487047B9
:1002C0001000002001491820ABBEFEE72600020006
:1002D00070470000FEE7000070470000EFF3108059
:1002E00072B600BFFEE70000B0B5044600F01EF98C
:1002F000054640F20000C2F200000078611C18BF01
:10030000044400BF00F012F9401BA042FAD3B0BD74
:100310002DE9F04F82B00E68002E00F0FD8041F212
:100320000042C4F20102042340F2004E904208BF92
:1003300003234FF6FF7CC4F2010E00930024012337
:10034000C1F2100C4FF0000A4FF000094BE000BF63
:1003500041F20002C4F20102009F904208BF02274E
:1003600004F00C030F229A402BEA020207FA03F36F
:100370004FEA9A051A4346F825204E6840F20C458C
:10038000F202DEF8082054BF22EA080242EA08021C
:10039000C4F20105CEF808202A68B30254BF22EA4D
:1003A000080242EA08022A60B303DEF8042054BFC0
:1003B00022EA080242EA0802F303CEF80420DEF83B
:1003C00000204FF0010354BF22EA080242EA08026B
:1003D000CEF800200E680AF1010A36FA0AF204F19A
:1003E000040400F0998003FA0AFB16EA0B08F1D026
:1003F0004E68664512DC122E56D8DFE806F0350B43
:100400004D495555555555555555555555555545C0
:10041000510000BFD1F80C9046E000BF4FF6FF72CC
:10042000C1F2210296420FDC0022C1F21102964273
:100430001AD00022C1F21202964215D00022C1F257
:100440002102964210D02FE00022C1F222029642F1
:100450000AD00022C1F23102964205D00022C1F238
:100460003202964220D100BF8A684AB1012A14BFE5
:10047000C0F814B0C0F810B04FF0080914E000BF85
:100480004FF0040910E000BFCA6802F104090BE054
:100490004FF0000908E000BFCA6802F1080903E054
:1004A000CA6802F10C0900BF02462646B8F5807FF3
:1004B00024BF0432203E17680F25B54027EA050502
:1004C00009FA06F635431560CA79D2067FF582AF80
:1004D00041F21803C4F202031A68AEF57E7642F0C8
:1004E00001021A601A6802F001020192019A2AF0D0
:1004F000030256F802B040F60002C4F20102904234
:1005000008D040F60042C4F2010290427FF420AFCE
:10051000012725E7002723E702B0BDE8F08F0000A0
:10052000002A08BF090401617047000040F21C2046
:10053000C2F2000000687047002804BF0120704725
:10054000F0B581B0044690F83D0028B9002084F849
:100550003C00204600F0EEFC242084F83D0020689A
:10056000016821F001010160016841F4004101606E
:10057000016821F40041016000F094FE636848F2D4
:10058000A16CC0F2010C40F60011C0F23D016345C0
:100590003CBF48F28041C0F21E01884202D20120D5
:1005A00001B0F0BD4DF68361C4F21B31A0FB011216
:1005B0002168970CD1F804E04FF496762EF03F05B1
:1005C00045EA92454D60774348F638160D6AC0F209
:1005D0004106A7FB067625F03F07634538BF960C1A
:1005E000721C3A430A62CA6948F2A0664CF6FF7769
:1005F000C0F20106B34222EA07020BD801385B00C1
:10060000B0FBF3F001306FF31F30042898BF0420D3
:100610001BE000BFA768013857B119277B43B0FB27
:10062000F3F001306FF31F3070B100F5804007E048
:1006300003EB4303B0FBF3F001306FF31F3018B14D
:1006400000F5004001E000BF01201043C8610868C8
:10065000D4E9072320F0C0001043184308608868DD
:1006600048F2FF3204F10C0790438CCF184310433B
:10067000A6698860C86820F0FF0038433043C8602E
:10068000086840F00100086000202021206484F800
:100690003D10206384F83E0001B0F0BD2DE9F04F1D
:1006A00083B01E46924688460446FFF73FFF94F803
:1006B0003D10202924D12168054600BF88698007A4
:1006C0001AD5FFF733FF401B21681A28F6D3886933
:1006D0008007F3D500202021206384F83D1084F8A2
:1006E0003E00216C41F02001216484F83C0002208E
:1006F00003B0BDE8F08F00BF94F83C00012803D19F
:10070000022003B0BDE8F08F4FF0010984F83C905F
:100710000868C00703D1086840F001000860086855
:10072000002720F400600860242084F83D000020A9
:10073000CFF6FF702764E06208F0FE08BAF1010FFF
:1007400088BFD1464FF0A00A4FF0200B04E000BF55
:1007500001374F4500F0A2800868002240F4807005
:10076000086020464FF001113346009501F02AFE43
:100770002168002856D1C1F81080FFF7D7FE216804
:100780004B694A6994F83D50A02D054605D013F0F9
:10079000020008BF12F480601AD084F83DB04869A6
:1007A0000A68800742F400720A6045D46FF48060E2
:1007B000486100BF88698007CAD5FFF7B7FE401BB4
:1007C00021681A28F6D388698007F3D54AE000BF6C
:1007D000B6B100BFFFF7AAFE401BB04288BF84F845
:1007E0003DA021684A69486994F83D30A02BD4D0D7
:1007F00012F0020208BF10F48060EBD0CDE700BF1A
:10080000FFF794FE84F83DA021684A69486994F88E
:100810003D30A02BC1D012F00202BED110F4806096
:10082000EED0BAE70868C00544BF4FF400702064FA
:10083000032003B0BDE8F08F0020029048690290C9
:10084000886902900298886901E000BF806980078A
:100850001AD5FFF76BFE411B20681A29F6D3816970
:100860008907F3D500202021206384F83D1084F807
:100870003E00216C41F02001216484F83C000120FD
:1008800003B0BDE8F08F00BF202084F83D000020B9
:1008900084F83C0003B0BDE8F08F00BF202084F84E
:1008A0003D00002084F83C00012003B0BDE8F08F3B
:1008B0002DE9F04383B01E46174689460446FFF7EC
:1008C00035FE94F83D10202924D10546206800BF4C
:1008D000816989071AD5FFF729FE411B20681A296B
:1008E000F6D381698907F3D500202021206384F89D
:1008F0003D1084F83E00216C41F02001216484F811
:100900003C00022003B0BDE8F08300BF94F83C1027
:10091000012903D1022003B0BDE8F083012184F84E
:100920003C100168C90703D1016841F00101016071
:10093000016840F2020821F400610160212184F87D
:100940003D10102184F83E10002121646762668505
:10095000618DC0F201082185A8F10211E162E16A0E
:100960000A9E11F5803F18BF01291DD1016841F48D
:100970008071016020464FF001110022334600953E
:1009800001F020FD50B120680068C00544BF4FF45D
:1009900000702064012003B0BDE8F0832069B0F549
:1009A000804F07D1FE2015E00829DFD0216B1229E6
:1009B000DCD0DFE7062000EAD9102168F0300861BA
:1009C00008F10601204632462B4601F0E1FD0028E1
:1009D000E0D1FF20216800EA090008612046414675
:1009E00032462B4601F0D4FD0028D3D100200290DE
:1009F00020684169029180690290029806E000BF78
:100A0000204631462A4601F07FFC18BB208D68B392
:100A1000204631462A4601F06FFED8B9606A216847
:100A2000024612F8013B0B616262628D013A6285F7
:100A3000228D531E23854F697F07E1D51B04DFD02C
:100A4000437802300B616062608D01386085901ED2
:100A50002085D5E7206C04289CD12068016841F4EA
:100A600000710160012003B0BDE8F08320680168D7
:100A700041F400710160202084F83D00002084F8DA
:100A80003E0084F83C0003B0BDE8F0832DE9F04F50
:100A900085B004460020994616460F460490FFF79D
:100AA00045FD94F83D10202927D10546206800BF58
:100AB000816989071CD5FFF739FD411B20681A2978
:100AC000F6D381698907F3D500202021206384F8BB
:100AD0003D1084F83E00206C04F13C0A40F02000F8
:100AE0002064022000218AF8001005B0BDE8F08FD4
:100AF000A2461AF83C1F012904D1022005B0BDE826
:100B0000F08F00BF01228AF800200368DDE90F188A
:100B10000E9ADB0703D1036843F001030360036807
:100B200023F400630360222084F83D00402084F811
:100B30003E000020206462626185608D3946208518
:100B40000020CFF6FF70E062204632464B46CDE9EA
:100B5000008501F0EBFA18B1012005B0BDE8F08F77
:100B6000208D022826D001280ED0002838D1002060
:100B70000390206841690391816903910399016899
:100B800041F40071016037E02068016821F4806160
:100B90000160EFF3108072B6002003902068416975
:100BA0000391816903910399016841F40071016027
:100BB00062B621E02068016841F400610160EFF352
:100BC000108072B60020039020684169039181690A
:100BD00003910399016821F48061016062B60BE022
:100BE0002068016841F4806101600021039141693E
:100BF0000391806903900398208D002800F0CC8039
:100C0000042740F208094BF2895BC0F20107C2F2E7
:100C10000009C1F2F84B23260EE000BF10690870EE
:100C2000606A218D01306062481E2085618D013926
:100C30006185010400F0B08080B203280CD802283E
:100C40002CD001284AD1204641462A4601F00CFD0D
:100C5000002800F09C807FE7204641462A4601F0AC
:100C600003FD00287FF478AF2068616A006908708E
:100C7000606A2268411C208D616201382085638D85
:100C8000013B638553695B07D3D580B20328C5D187
:100C9000106820F480601060C0E700BF204639462D
:100CA00000224346009501F08DFB00287FF454AFED
:100CB000EFF3108072B62068616A026842F4007235
:100CC000026000690870606A218D01306062481E10
:100CD0002085608D0138608562B658E0204639462F
:100CE00000224346009501F06DFB00287FF434AFED
:100CF0002068016821F480610160EFF3108072B612
:100D00002068616A00690870606A218D01300139CC
:100D100060622185618D01396185D9F80010C908AB
:100D2000A1FB0B12110A714304910499013904913A
:100D3000049900293CD021684A69520717D4049AC3
:100D4000013A0492049A9AB34A6952070FD4049A5A
:100D5000013A0492049A5AB34A69520707D4049A92
:100D6000013A0492049A1AB34A695207DDD50A6817
:100D700042F400720A6009690170606A218D0130D5
:100D80006062481E2085608D0138608562B62068EB
:100D9000616A006943E700BF202084F83D0000201D
:100DA00084F83E0000218AF8001005B0BDE8F08FFD
:100DB00000202021206384F83D1084F83E00206C40
:100DC00040F02000206462B6012000218AF8001063
:100DD00005B0BDE8F08F00002DE9F04383B09946DF
:100DE00016460F460446FFF7A1FB94F83D10202954
:100DF00024D10546206800BF816989071AD5FFF70D
:100E000095FB411B20681A29F6D381698907F3D520
:100E100000202021206384F83D1084F83E00216CDE
:100E200041F02001216484F83C00022003B0BDE8B9
:100E3000F08300BF94F83C10012903D1022003B0D5
:100E4000BDE8F083012284F83C200368DDE90B183B
:100E50000A9ADB0703D1036843F0010303600368C8
:100E600023F400630360212084F83D00402084F8CF
:100E70003E000020206462626185608D39462085D5
:100E80000020CFF6FF70E062204632464B46CDE9A7
:100E9000008501F0D5F918B1012003B0BDE8F08359
:100EA000208D98B9204641462A4601F02DFA88B394
:100EB000206C0428F0D12068016841F400710160C1
:100EC000012003B0BDE8F0830004EBD0204641468A
:100ED0002A4601F011FC0028EAD1616A226808461E
:100EE00010F8013B1361238D6062581E2085678DC9
:100EF000013F678557697F07E6D50704E4D0487846
:100F00001061881C6062981E2085618D01396185A1
:100F1000DAE700BF2068016841F400710160202019
:100F200084F83D00002084F83E0084F83C0003B0C3
:100F3000BDE8F08310B586B0016845F20040C4F208
:100F4000000081424FF00001CDE90411CDE902110A
:100F500002D006B010BD00BF41F21804C4F2020472
:100F6000216800F5384041F008012160216801F056
:100F7000080101910199C0210291122103910321DD
:100F8000059102A9FFF7C4F9606840F400106060A1
:100F9000606800F400100190019806B010BD0000D8
:100FA00040F2000040F21C21C2F20000C2F2000137
:100FB00000780A68104408607047000080B542F26B
:100FC0000000C4F20200016841F01001016003203A
:100FD00000F07AF80F2000F005F800F027F8002064
:100FE00080BD000070B540F20006C2F2000640F27B
:100FF00008013278C2F200014FF47A730968B3FB3A
:10100000F2F20446B1FBF2F1084600F05FFB0F2C50
:101010004FF0010508D838B94FF0FF3021460022C3
:10102000002500F025F87460284670BD82B041F2BA
:101030001800C4F202000168022241F001010160BF
:10104000016801F0010101910199416841F080516D
:101050004160406800F08050009000980420C4F285
:101060000100016862F31A61016002B0704700007C
:1010700010B54EF60C5CCEF2000CDCF80030C3F379
:10108000022E8EF00704042C28BF0424BEF10303B3
:101090004FF0FF3E0EFA04F438BF0023A1439940FD
:1010A0000EFA03F39A43114300F00F0200F160437C
:1010B0000901043A03F564436244002848BF02F181
:1010C0000C03197010BD00004EF60C51CEF2000159
:1010D0000A684FF6FF031A4060F30A2242F080606C
:1010E00040F0FD7008607047002804BF0120704781
:1010F0002DE9F04381B042F20008C4F20208044630
:10110000D8F800000D4600F0070081420CD9D8F84D
:10111000000020F007002843C8F80000D8F80000BD
:1011200000F00700A8426CD1206841F20409810751
:10113000C4F2020917D5410705D5D9F8001041F4CA
:10114000E061C9F80010010705D5D9F8001041F495
:101150006051C9F80010D9F80010A26821F0F00120
:101160001143C9F80010C00742D1D8F8000000F0C0
:10117000070085420CD2D8F8000020F00700284371
:10118000C8F80000D8F8000000F00700A84238D1E5
:101190002068410707D5D9F80010E26821F4E06122
:1011A0001143C9F80010000708D5D9F800002169DB
:1011B00020F4605040EAC100C9F80000D9F80020CE
:1011C00002F00C00082841F20020C0F27A004DD154
:1011D00046F2F003C2F38341C0F60003595CD20328
:1011E00038D440F60010C0F23D0048433EE000BF56
:1011F000606859F8041C022808D0012826D1890308
:1012000006D4012001B0BDE8F08300BF8901F8D504
:10121000D9F8001021F003010843C9F80000FFF7D6
:1012200085F9064641F28837D9F80000616800F078
:101230000C00B0EB810F98D0FFF778F9801BB84213
:10124000F2D9032001B0BDE8F08300BF8907D8D5EB
:10125000DEE700BFD9F8002046F2EE03C2F34042B9
:10126000C0F600039A5C4843B0FBF2F0D9F80010D6
:1012700046F2D602C1F30311C0F60002515C40F2FF
:10128000080220FA01F140F20400C2F200000068F6
:10129000C2F200021160FFF7A5FE002001B0BDE818
:1012A000F083000040F2080041F20401C2F20000A5
:1012B000C4F202010068096846F2E602C1F30221A5
:1012C000C0F60002515CC84070470000002804BF0F
:1012D000012070472DE9F04182B00446007841F2C8
:1012E0000006C007C4F202060CD0706800F00C00C3
:1012F000042840F081803068800303D560680028AE
:1013000000F04681207880071BD5706810F00C0F24
:1013100009D0706800F00C00082840F087807068E1
:10132000C00300F183803068800703D5206901285D
:1013300040F02E813068616920F0F80040EAC10079
:1013400030602078000713D4207840072CD4E5695A
:10135000002D00F01881706800F00C00082840F0A3
:10136000A780012D40F00481012002B0BDE8F0818A
:10137000A069002800F084800020C4F242200121EE
:10138000C0F88014FFF7D2F8054600BF706A8007E6
:1013900000F1B280FFF7CAF8401B0228F6D90320FB
:1013A00002B0BDE8F08100BFF0695FEAC00808D470
:1013B000F06940F08050F061F06900F080500090DA
:1013C000009847F20007C4F200073868C00549D406
:1013D000386840F480703860FFF7A8F8054600BF11
:1013E0003868C0053ED4FFF7A1F8401B6428F7D940
:1013F000032002B0BDE8F081706800F00C000828FE
:1014000003D17068C0033FF576AF6168306800298A
:1014100000F00C81B1F5A02F00F00081B1F5803F04
:1014200040F01A8140F480301CE100BF20690028A0
:1014300040F20000C4F2422000F0888001210160E7
:10144000FFF774F8054600BF306880073FF572AFBC
:10145000FFF76CF8401B0228F6D9032002B0BDE864
:10146000F08100BFE168306A002900F09D80052905
:1014700000F09280012940F0AF8040F00100B1E01F
:101480000020C4F242200021C0F88014FFF74EF87B
:10149000054600BF706A80077FF556AFFFF746F834
:1014A000401B0228F6D9032002B0BDE8F08100BF3E
:1014B0000027C4F2422700203866FFF737F8022DD4
:1014C00005460DD13068800140F1DE80FFF72EF82F
:1014D000401B02284FF00300F4D902B0BDE8F081B0
:1014E000306880014FD5FFF721F8401B02284FF0EC
:1014F0000300F5D9F1E700BF40F20800C2F2000096
:10150000006844F6D351C1F26201A0FB0101480A10
:10151000019000BF00BF0198411E002801913FF4D7
:1015200013AF00BF0198411E002801913FF40CAF9A
:1015300000BF0198411E002801913FF405AF00BF94
:101540000198411E00280191E4D1FDE600210160CF
:10155000FEF7ECFF054600BF306880077FF5F1AE6F
:10156000FEF7E4FF401B02284FF00300F4D9B4E774
:101570007068216A00F480328A4209D1616A00F4FD
:101580007010884204D1002002B0BDE8F08100BF95
:10159000012002B0BDE8F08140F004003062306A02
:1015A00040F001001EE000BF20F001003062306A10
:1015B00020F004003062FEF7B9FF054641F288379B
:1015C000306A800720D5FEF7B1FF401BB8424FF0CC
:1015D0000300F5D981E700BF20F001003062306AD6
:1015E00020F004003062FEF7A1FF054641F2883783
:1015F000306A800708D4FEF799FF401BB842F7D93C
:10160000032002B0BDE8F081B8F1000F3FF59FAEB6
:10161000F06920F08050F06199E600BF40F480202E
:101620003060306840F480301CE000BF20F480302F
:101630003060306820F480203060FEF777FF054688
:10164000306880037FF55EAEFEF770FF401B6428B4
:101650004FF00300F4D940E720F480303060306868
:1016600020F480203060FEF761FF0546306880037B
:101670003FF548AEFEF75AFF401B6428F6D9032019
:1016800002B0BDE8F08100BF206AB0F5803F05D10F
:101690007168A26821F40031114371607168626A57
:1016A00021F4741111430843706001203866FEF77D
:1016B0003DFF0446306880013FF565AFFEF736FF19
:1016C000001B02284FF00300F4D906E7411E00205A
:1016D000B0EB116F1CBF012070474EF21002CEF22A
:1016E000000251604EF62351CEF20001F0230B7040
:1016F000072190601160704790F83C20012A04BFD8
:1017000002207047B0B501F108053CCDD1E900CE0B
:1017100023F47C5322F470521A432EF4F0431A43FC
:101720002CF4E0431A4324F4C0431A432A43C96902
:1017300022F48042036811435964002180F83C1070
:101740000020B0BD90F83C20012A4FF0020236D0B4
:1017500010B580F83D200268D2F804E0D2F808C045
:101760000C682EF07003234340F2FF74C4F20004AF
:10177000A24253600ADCB2F1804F13D040F2004322
:10178000C4F200039A420DD011E000BF42F60043BC
:10179000C4F201039A4205D040F60003C4F20003EC
:1017A0009A4204D149682CF08003194391600121C9
:1017B000002280F83D1080F83C20BDE81040104623
:1017C00070470000002804BF0120704710B590F852
:1017D0003D1031B9002180F83C10044600F070F84B
:1017E0002046022180F83D10016840F2FF740B682A
:1017F000C4F2000442F6004CA142C4F2010C15DC14
:10180000B1F1804F1AD040F20042C4F2000291427E
:1018100014D0A14218DCB1F1804F1DD040F200423B
:10182000C4F20002914217D01AE000BF614505D012
:1018300040F60002C4F200029142EAD1826823F02D
:1018400070031343A142E6DD614505D040F6000276
:10185000C4F20002914203D1026923F4407313439E
:10186000846923F08002D0F804E0C3682243614514
:101870000A60CB62C1F828E002D14269CCF830207E
:1018800001224A610B69DB0703D00B6923F00103D6
:101890000B6180F8462080F83E2080F83F2080F8D9
:1018A000402080F8412080F8422080F8432080F8D2
:1018B000442080F8452080F83D20002010BD000025
:1018C000006842F60041C4F20101884218BF704727
:1018D00081B041F21800C4F20200016841F40061D5
:1018E0000160006800F400600090009801B070474B
:1018F00090F83C20012A4FF002026CD080B580F8AD
:101900003D20D0F800C04FF67772DCF8083023EAAB
:101910000202CCF808200B684F2B29DC1F2B45DD79
:10192000202B46D0302B44D0402B40F0AF80D1F854
:1019300004E0C968DCF82030DCF8202022F0010245
:10194000CCF82020DCF8182022F0F00242EA011145
:1019500023F00A0242EA0E02CCF81810CCF820203C
:10196000DCF8081041F0470121F0300128E000BF09
:101970006F2B33DDB3F5005F74D0B3F5805F21D0FA
:10198000702B40F08380D1E901E3C968DCF80820BE
:1019900043EA0E0322F47F4243EA01211143CCF8CB
:1019A0000810DCF8081041F0770109E00BB1102BAA
:1019B0006CD1DCF8081021F07001194341F00701E7
:1019C000CCF808100022012180F83D10002180F899
:1019D0003C10BDE880401046704700BF502B21D01E
:1019E000602B53D1D1F804E0C968DCF82030DCF872
:1019F000202022F01002CCF82020DCF8182022F45D
:101A0000704242EA013123F0A00242EA0E12CCF801
:101A10001810CCF82020DCF8081041F0670121F004
:101A20001001CDE7D1F804E0C968DCF82030DCF81B
:101A3000202022F00102CCF82020DCF8182022F02F
:101A4000F00242EA011123F00A0242EA0E02CCF847
:101A50001810CCF82020DCF8081041F0570121F0D4
:101A60002001ADE7D1E901E3C968DCF8082043EAC9
:101A70000E0322F47F4243EA01211143CCF80810FF
:101A8000DCF8081041F480419AE700BF01229AE790
:101A9000002804BF012070472DE9F04F81B090F875
:101AA0003D2042B9002280F83C2004460D4600F05B
:101AB0009DF829462046022280F83D20026844F223
:101AC0000705936842F6004CAB43936040F2FF7306
:101AD0001468C4F200039A42C4F2010C14DCB2F19F
:101AE000804F19D040F20045C4F20005AA4213D03D
:101AF0009A4217DCB2F1804F1CD040F20043C4F28E
:101B000000039A4216D01AE0624505D040F600055F
:101B1000C4F20005AA42EBD1856824F070042C437E
:101B20009A42E7DD624505D040F60003C4F20003A7
:101B30009A4204D1036924F4407543EA050424F071
:101B400080038469D0F804E0C568234362451360CC
:101B5000D562C2F828E002D14369CCF830304FF0AA
:101B6000010EC2F814E01569ED0703D0156925F0E0
:101B70000105156195689469D2F820C0D1E9003853
:101B8000D1E9027B43EA050A8D694FF6FF7924EA21
:101B9000090447EA05254FF6FC47BD43D1E907761E
:101BA00044EA0B040B692C4344EA07242CF0220777
:101BB000496944EA031347EA080743EA063347EA58
:101BC0000111C2F808A09361116280F846E080F824
:101BD0003EE080F83FE080F842E080F843E080F8A3
:101BE0003DE0002001B0BDE8F08F000080B586B078
:101BF000006840F20041C4F2000188424FF0000149
:101C0000CDE90411CDE902111AD0B0F1804F3AD1DB
:101C100041F21800C4F20200416841F00101416044
:101C2000416801F0010101910199016841F004014D
:101C30000160006800F0040001900198032016E0A4
:101C400041F21800C4F20200416841F00201416013
:101C5000416801F0020101910199016841F004011C
:101C60000160006800F0040001900198C02002901B
:101C7000002003900120049040F60000C4F201000F
:101C800002A9FEF745FB06B080BD000080B590F8C4
:101C90003E2090F83F3090F842E090F843C004298D
:101CA0000AD0B9B9012A4FF0010208BFBEF1010FF5
:101CB00034D0104680BD00BF012B4FF0010208BF99
:101CC000BCF1010FF5D1022180F83F1080F84310DC
:101CD00000681EE0012A4FF0010208BF012BE8D185
:101CE000BEF1010FE5D1BCF1010FE2D1022280F873
:101CF0003E2080F83F2080F8422080F8432091B1B8
:101D00000068016A21F001010162016A41F00101EC
:101D1000016210216FF0100209E000BF022180F87B
:101D20003E1080F84210006801216FF00102036A42
:101D30001A400262026A114301620168002241F006
:101D400001010160104680BD90F83C30012B04BFBA
:101D5000022070474FEAB202032A00F2F1802DE917
:101D6000F043DFE802F003A53B7500BF036842F6CD
:101D700000461D6A1A6AC4F2010622F001021A62C4
:101D80001A465C6852F818CFB3428E68D1F800E06A
:101D900025F0020545EA06050CD1CE68D1E90578A3
:101DA00024F4407425F00C0526F004063C4335432A
:101DB00044EA08042CF0730747EA0E075C609F6151
:101DC0004F6809695F631D629F6947F008079F615B
:101DD0009F6927F004079F61A6E000BF036842F6F1
:101DE00000461D6A1A6AC4F2010622F480721A6261
:101DF0001A46D3F804C052F81CEFB3428E680C6840
:101E000025F4007545EA06250FD1CE68D1E905987D
:101E1000360240F2FF4725F44065BE4335432CF4BB
:101E2000405748EA090647EA061C2EF07307274385
:101E3000C3F804C0DF614F680969DF631D62DF69B1
:101E400047F00807DF61DF6927F00407DF616BE017
:101E5000036842F60047D3F820C01A6AC4F20107AB
:101E600022F480521A621A465C6852F81C5FD1F85C
:101E700000E08E68BB4204D14F6924F4804444EAF8
:101E800087142CF4005747EA063725F4E64646EA5D
:101E90000E265C60DE614E6809691E641F62DF69A0
:101EA00047F40067DF61DF6927F48067DF613AE0AC
:101EB000036842F600461D6A1A6AC4F2010622F05F
:101EC00010021A621A46D3F804C052F8184FB342EF
:101ED0008E68D1F800E025F0200545EA06150FD1FF
:101EE000CE68D1E905986FF0400725F0C00507EAF4
:101EF000061635432CF4406748EA090647EA860C83
:101F000024F4E64444EA0E27C3F804C09F614F68F6
:101F100009699F631D629F6947F400679F619F691C
:101F200027F480679F61090213681943116000213B
:101F3000BDE8F043002280F83C200846704700BF0F
:101F40000121002280F83C2008467047002804BF89
:101F50000120704710B590F83D1031B9002180F88C
:101F60003C10044600F070F82046022180F83D1035
:101F7000016840F2FF740B68C4F2000442F6004CA2
:101F8000A142C4F2010C15DCB1F1804F1AD040F22D
:101F90000042C4F20002914214D0A14218DCB1F117
:101FA000804F1DD040F20042C4F20002914217D08F
:101FB0001AE000BF614505D040F60002C4F20002FD
:101FC0009142EAD1826823F070031343A142E6DD17
:101FD000614505D040F60002C4F20002914203D1EF
:101FE000026923F440731343846923F08002D0F81C
:101FF00004E0C368224361450A60CB62C1F828E06F
:1020000002D14269CCF8302001224A610B69DB071A
:1020100003D00B6923F001030B6180F8462080F8A0
:102020003E2080F83F2080F8402080F8412080F852
:10203000422080F8432080F8442080F8452080F832
:102040003D20002010BD000070470000C1B10429F0
:1020500008D0082914BF41224022825C012A05D001
:1020600016E000BF3F22825C012A11D1022208291A
:1020700010D0042914BF80F8412080F83F200BE0E5
:1020800090F83E20012A03D1022280F83E2003E08E
:102090000120704780F84020006801F01F010122F4
:1020A000036A8A4023EA02010162036A42F644415C
:1020B000C4F201011A43A1F14403984202620FD015
:1020C00040F2FF71C4F20001884213DCB0F1804F8E
:1020D0001CD040F20041C4F20001884216D01CE03E
:1020E0000A6842F400420A6040F2FF71C4F2000143
:1020F0008842EBDD42F60041C4F20101884205D07E
:1021000040F60001C4F20001884206D1816801F066
:102110000701062904BF00207047016841F0010152
:102120000160002070470000FEE700002DE9F04745
:1021300082B0044600689A460B9D0A9E0368914649
:1021400043F48062026002680F4642F480710160CD
:1021500020464FF0011100223346009500F032F97D
:1021600050B120680068C00544BF4FF4007020647F
:10217000032002B0BDE8F08740F202082068C0F2F8
:10218000010807F0FE0707612046414632462B460C
:1021900000F0FEF920B1012002B0BDE8F08700BFD9
:1021A0000020019020682A464169019180693146EA
:1021B00001900198204600F09FFAB0B92068BAF16A
:1021C000010F09D04FEA19210161204631462A4604
:1021D00000F092FA48B920685FFA89F1016120465F
:1021E00031462A4600F088FA60B1206C0428D2D12A
:1021F0002068016841F400710160012002B0BDE86F
:10220000F08700BF206800220168334641F48071E6
:10221000016020464FF00111009500F0D3F800282E
:102220009FD147F0010C27682046414632462B4695
:10223000C7F810C002B0BDE8F04700F0A9B900002F
:102240002DE9F04383B0044600680F4601680A9DFB
:102250000B9E41F4807199469046016020464FF0F4
:10226000011100222B46009600F0ACF850B1206816
:102270000068C00544BF4FF400702064032003B021
:10228000BDE8F083206807F0FE0101610221C0F281
:10229000010120462A46334600F07AF920B1012098
:1022A00003B0BDE8F08300BF0020029020683246F2
:1022B000416902918069294602900298204600F007
:1022C0001BFA58B1206C0428E9D12068016841F458
:1022D00000710160012003B0BDE8F0832068B9F10E
:1022E000010F0AD04FEA18210161204629463246E3
:1022F00000F002FA0028E5D120685FFA88F1016158
:10230000002003B0BDE8F08370B50368044653F8BD
:10231000140F400711D40E46481C29D086BB00BFBD
:102320001868400527D4FEF701F9236853F8140F05
:10233000400737D518684007F2D5002070BD00BFB0
:1023400018684007F9D41868400514D41868400785
:10235000F3D4186840050ED418684007EDD4186807
:10236000400508D4186840074FF0000048BF70BD12
:1023700018684005E4D56FF480601860042012E00E
:10238000154603E053F8140F4007D6D418684005EB
:10239000F1D4FEF7CBF8401B2368B042F2D958695C
:1023A0004007EFD4202000212022216384F83D2023
:1023B00084F83E10226C10432064012084F83C1005
:1023C00070BD00002DE9F041054600681E46144628
:1023D00001F47F0201338FB242D0DDF81880B2F5EC
:1023E000803F40F0878040693840C01BB0FA80F0E1
:1023F0004009844240F0C8804EB924E0406938402A
:10240000C01BB0FA80F04009844240F0BD80FEF766
:102410008DF8A0EB08012868B142EFD94169394035
:10242000C91BB1FA81F149098C42E7D19BE000BF99
:1024300040693840C01BB0FA80F0400984424FF038
:10244000000040F0A280FEF771F828684169394029
:10245000C91BB1FA81F149098C42E9D183E000BF7F
:10246000B2F5803F24D100BF41693940C91BB1FAA0
:1024700081F149098C4240F0878041693940C91B8C
:10248000B1FA81F149098C4240F07E8041693940BE
:10249000C91BB1FA81F149098C4275D141693940B2
:1024A000C91BB1FA81F149098C42DDD06CE000BF53
:1024B00081693940C91BB1FA81F149098C4263D164
:1024C00081693940C91BB1FA81F149098C425BD15C
:1024D00081693940C91BB1FA81F149098C4253D154
:1024E00081693940C91BB1FA81F149098C42DFD0B9
:1024F0004AE000BF80693840C01BB0FA80F0400954
:10250000844241D146B923E080693840C01BB0FA0B
:1025100080F04009844237D1FEF708F8A0EB0801AB
:102520002868B142F0D981693940C91BB1FA81F1FB
:1025300049098C42E8D116E080693840C01BB0FAE6
:1025400080F0400984424FF0000018BFBDE8F081E0
:10255000FDF7ECFF286881693940C91BB1FA81F1A8
:1025600049098C42E8D100202021286385F83D10DC
:1025700085F83E00296C41F02001296485F83C0073
:102580000120BDE8F08100BF0020BDE8F08100001F
:10259000F0B581B0044600681D4643698FB203EA76
:1025A0000701B94202D1002001B0F0BD41691646D1
:1025B00001323CD0490512D47EB300BFFDF7B6FF0F
:1025C000411B2068B14203D941693940B9422BD13E
:1025D00041693940B942E6D041694905EED5016803
:1025E00041F4007101606FF48061416104200021B9
:1025F0002022216384F83D2084F83E10226C104391
:10260000206484F83C10012001B0F0BD41693940DC
:10261000B942C8D041694905E1D4FDF787FF206878
:1026200041693940B942F1D02020E0E741694905CC
:10263000D5D441693940B942B5D041694905CED4B4
:1026400041693940B942AED041694905C7D44169B1
:102650003940B942A7D041694905C0D441693940E0
:10266000B942E3D19FE7000070B504460068154603
:1026700050F8143F5A063DD40E4629B926E000BF53
:1026800050F8141F490635D40168C90621D4FDF756
:102690004DFF411B2068B142F2D941694906EFD490
:1026A00000202021206384F83D1084F83E00206C37
:1026B00040F0200018E000BFFDF738FF206850F818
:1026C000141F4906ECD50168490613D40168C906F0
:1026D000F2D56FF01001016000202021206384F802
:1026E0003D1084F83E00206C2064002084F83C00FB
:1026F000012070BD002070BD70B50368044653F81A
:10270000140F000611D40E46481C29D086BB00BF0A
:102710001868400527D4FDF709FF236853F8140F04
:10272000000637D518680006F2D5002070BD00BF3E
:1027300018680006F9D41868400514D41868000613
:10274000F3D4186840050ED418680006EDD4186854
:10275000400508D4186800064FF0000048BF70BD5F
:1027600018684005E4D56FF480601860042012E01A
:10277000154603E053F8140F0006D6D41868400538
:10278000F1D4FDF7D3FE401B2368B042F2D958695B
:102790000006EFD4202000212022216384F83D2070
:1027A00084F83E10226C10432064012084F83C1011
:1027B00070BD0000F0B585B0002641F21800CDE9EB
:1027C0000366CDE90166C4F20200016840F60044E8
:1027D00041F0200101600168C4F2010401F0200110
:1027E000009100990168002241F004010160016834
:1027F0004FF4704501F0040100910099016841F027
:102800000801016000684FF4704100F0080000907A
:1028100000982046FDF784FE0195012001ADCDE929
:1028200002060227204629460497FDF771FD102075
:1028300001A9C1C120462946FDF76AFD05B0F0BDDA
:1028400080B540F2F00045F20041C2F20000C4F24F
:10285000000148F2A06200234FF4804CC0F2010254
:1028600080E80E00C0E9033CC0E90533C0E9073346
:10287000FDF762FE002808BF80BDBDE88040FDF77F
:102880002DBD0000B0B59CB042F6004540F24410AA
:10289000C4F201050021C2F20000472242F20F7388
:1028A0001691CDE914111191CDE90F11CDE90D115A
:1028B000CDE90B11CDE90911CDE90711CDE90511DC
:1028C000CDE90311CDE90111C0E90052C0E90213BD
:1028D000C0E904118161FEF775FF002818BFFDF7FC
:1028E000FDFC4FF48050139040F24410C2F20000FF
:1028F00013A9FEF7FDFF002818BFFDF7EFFC40F21B
:102900004410C2F20000FFF721FB002818BFFDF7BA
:10291000E5FC40F244100024C2F2000010A9CDE909
:102920001044FEF70FFF002818BFFDF7D7FC60200A
:10293000099040F2CF70CDE90A0440F24410C2F28F
:10294000000009A90022CDE90C44CDE90E44FFF7AF
:10295000FBF9002818BFFDF7C1FC40F24410002429
:10296000C2F2000009A904220A94FFF7EDF9002839
:1029700018BFFDF7B3FC0594CDE90344CDE901444C
:10298000089440F244144FF40050C2F20004069040
:1029900001A92046FEF7B0FE002818BFFDF79EFCF7
:1029A00021680020A942CDE91A001990189001D0A1
:1029B0001CB0B0BD41F21800C4F20200016841F041
:1029C00004010160006818A900F00400179017982E
:1029D0004FF440701890022019901B90A5F51050EC
:1029E000FDF796FC1CB0B0BD80B58CB040F28C10E9
:1029F0000021C2F200004FF08042C0E90021032212
:102A00004FF6FF73CDE903210122CDE90011C0E9A2
:102A1000021301618161CDE90521CDE90711CDE9FD
:102A200009210B9103A9FFF733F8002818BFFDF720
:102A300055FC40F28C10C2F200006946FEF782FE9F
:102A4000002818BFFDF74AFC0CB080BD80B58CB0E3
:102A500040F2D41040F200420021C2F20000C4F261
:102A60000002C0E9002103224FF6FF73CDE90321E4
:102A70000122CDE90011C0E9021301618161CDE9B4
:102A80000521CDE90711CDE909210B9103A9FEF735
:102A9000FFFF002818BFFDF721FC40F2D410C2F25E
:102AA00000006946FEF74EFE002818BFFDF716FC31
:102AB0000CB080BDFEE70000FEE70000704700009C
:102AC00070470000FEF76CBA70470000FEE7000098
:102AD0004EF60C50BFF34F8FCEF200000168042277
:102AE00001F4E061C0F2FA5211430160BFF34F8F6D
:102AF00000BF00BF00BF00BFFAE700002DE9F043B0
:102B00008BB040F20C00C2F2000040F27008017875
:102B1000C2F20008012008F108026427CDE9002074
:102B200008F1100041F00101012201230297FDF795
:102B3000ADFF98F8085088F80100E809C5F30014C3
:102B4000C5F3C006C5F38007C5F380198DF82B00C7
:102B50000DF1270003A98DF827408DF829608DF825
:102B600028708DF82A9000F027F80699002C01F6BD
:102B7000845008BF40F6363036B9002F1CBF0844D9
:102B800000F5257004E000BF00EB410000F2645046
:102B9000DDE90712B9F1000F014418BF01F52570F6
:102BA00011186AB2002A48BF01F22620C8F80C00AA
:102BB0000BB0BDE8F08300002DE9F04F85B040F286
:102BC0000C0BC2F2000B40F2700704909BF800005F
:102BD000C2F200070C46012107F1080507F11006B3
:102BE00042F6007A4FF0640CCDE9005140F001014B
:102BF000304650220123C0F23A0A4FF00108CDF8C6
:102C000008C04FF06409FDF741FF7870387A02215F
:102C100001EB40009BF80010C0B2208041F00101A0
:102C2000304646220123CDE90058CDF808904FF0F8
:102C30006409FDF72BFF7870207844F6D35800FB29
:102C40000AF0397A00F5FA70C1F26208A0FB0802B6
:102C5000481C9109414301EBD211A1FB0812A0804D
:102C600090099BF80010E0600220019041F0010102
:102C70003046512201230095CDF80890FDF706FF5C
:102C800078702078398900FB0AF000F5FA70A0FB13
:102C90000802C8B2090A88400130910983B2594339
:102CA00001EBD211A1FB0812E08090099BF8001003
:102CB00020610120019041F0010130467022012382
:102CC0000095CDF80890FDF7E1FE397A0222787080
:102CD00002EB41009BF80010C0B26080CDE90052C9
:102CE00041F00101304671220123CDF80890FDF733
:102CF000CDFE39897870C8B2090A8840049901303C
:102D0000C978208111B1E188401A2081A17842F66A
:102D10000072C0F23A02514301F5FA71A1FB0812A8
:102D2000910980B2484300EBD210A0FB080188094A
:102D3000606105B0BDE8F08F2DE9F04F85B040F23D
:102D40007008C2F200080124454640F20C06C2F2A7
:102D5000000605F8084F0491317805F1080781460F
:102D60004FF0640A384680220123CDE90054CDF8A3
:102D700008A0FEF731F8317805F8070C3846FF2235
:102D800001232C70CDE90054CDF808A0FEF724F8FB
:102D9000317805F8070C4FF0000B3846002201236C
:102DA00085F800B0CDE90054CDF808A0FEF714F87E
:102DB00005F8070C0620317828703846FF220123D9
:102DC000CDE90054CDF808A0FEF706F8317805F8F3
:102DD000070C41F00101384683220123CDE900545C
:102DE000CDF808A0FDF752FE297805F8070C41F050
:102DF000040031782870384683220123CDE900543D
:102E0000CDF808A0FDF7E8FF05F8070C072031789A
:102E100028703846FF220123CDE90054CDF808A0E0
:102E2000FDF7DAFF317805F8070C384681220123D7
:102E30002C70CDE90054CDF808A0FDF7CDFF317816
:102E400005F8070C3846802201232C70CDE9005488
:102E5000CDF808A0FDF7C0FF05F8070C6B2031780E
:102E60002870384694220123CDE90054CDF808A0FB
:102E7000FDF7B2FF317805F8070C384683220123AD
:102E800085F800B0CDE90054CDF808A0FDF7A4FF07
:102E900005F8070CFDF74AFB317825F8020C41F0E4
:102EA0000101384683220123CDE90054CDF808A062
:102EB000FDF7ECFD297805F8070C002900F0B68035
:102EC00008F8084F317808F10807384683220123B3
:102ED000CDE90084CDF808A0FDF77EFF317808F831
:102EE000070C41F00101384692220123CDE900840C
:102EF000CDF808A0FDF7CAFD98F8001008F8070CF7
:102F000001F07F0089F80000C80904998122087047
:102F100031783846012388F800B0CDE90084CDF837
:102F200008A0FDF759FF08F8070C3178062088F84B
:102F300000003846FF220123CDE90084CDF808A027
:102F4000FDF74AFF317808F8070C41F001013846D7
:102F500083220123CDE90084CDF808A0FDF796FD7A
:102F600098F8001008F8070C01F0FB00317888F899
:102F70000000384683220123CDE90084CDF808A063
:102F8000FDF72AFF317808F8070C3846FF220123A5
:102F900088F80040CDE90084CDF808A0FDF71CFFBB
:102FA000317808F8070C38460022012388F80040E1
:102FB000CDE90084CDF808A0FDF70EFF317808F8C0
:102FC000070C3846FF22012388F800B0CDE90084C1
:102FD000CDF808A0FDF700FF317808F8070C384657
:102FE0008022012388F800B0CDE90084CDF808A044
:102FF000FDF7F2FE08F8070C204605B0BDE8F08F9B
:10300000317808F10800CDE9000408F1100041F022
:10301000010183220123CDF808A0FDF737FD98F8C0
:10302000081088F8010000297FF44AAFB8F80400BE
:103030000028E5D0FDF77AFAB8F8061080B2B8F8A3
:103040000420401A9042DBDD0024204605B0BDE894
:10305000F08F000040F2D400C2F2000040887047B8
:1030600040F2D400C2F200008088704740F2D400E1
:10307000C2F20000C08870472DE9F04F85B040F2E1
:103080007007C2F2000707F1100B0646584654229B
:10309000FDF7B0F840F20C0A0024C2F2000ABC604E
:1030A00016B39AF800004FF06408012507F10806EE
:1030B00040F00101584689220123CDE90065CDF891
:1030C0000880FDF7E3FC397A787041F001009AF846
:1030D00000103872584689220123CDE90065CDF8E9
:1030E0000880FDF779FE78703D4605F8084F9AF89C
:1030F000001005F108064FF064084FF00109304652
:10310000882201230024CDE90059CDF80880FDF77D
:1031100063FE9AF8001005F8070C30468022012360
:1031200085F80090CDE90059CDF80880FDF754FEF0
:103130009AF8001005F8070C3046FF22012385F8A5
:103140000090CDE90059CDF80880FF27FDF744FE37
:103150009AF8001005F8070C3046002201232C7065
:10316000CDE90059CDF80880FDF736FE9AF8001039
:1031700005F8070C41F00101304691220123CDE909
:103180000059CDF80880FDF781FC297805F8070C77
:1031900005F8061C9AF8001030460022012385F835
:1031A0000090CDE90059CDF80880FDF715FE9AF89A
:1031B000001005F8070C3046FF2201232C70CDE9E2
:1031C0000059CDF80880FDF707FE9AF8001005F8C1
:1031D000070C3046802201232C70CDE90059CDF830
:1031E0000880FDF7F9FD9AF8001005F8070C41F08A
:1031F0000101304660220123CDE90059CDF8088055
:10320000FDF744FC297805F8070C41F012009AF804
:1032100000102870304660220123CDE90059CDF816
:103220000880FDF7D9FD05F8070C20209AF800105A
:1032300028800220CDE90050304644220123CDF8F9
:103240000880FDF7C9FD9AF8001005F8070C304614
:10325000012201232F70CDE90059CDF80880FDF738
:10326000BBFD05F8070C0DF113000DF11201FFF77E
:1032700063FD002800F056869AF80000062103AE90
:10328000CDE9006140F001015846B0220123CDF89C
:103290000880FDF7FBFB40F27007C2F2000707F859
:1032A000089F9AF8001007F8070C5846FF220123E0
:1032B000CDE90079CDF80880FDF78EFD9AF8001071
:1032C00007F8070C002558464F2201233D70CDE931
:1032D0000079CDF80880FDF77FFD07F8070C2C205A
:1032E0009AF80010387058464E220123CDE9007933
:1032F000CDF80880FDF770FD9AF8001007F8070C6C
:103300005846FF2201233D70CDE90079CDF80880B1
:10331000FDF762FD07F8070CB4209AF8001038702A
:103320005846B6220123CDE90079CDF80880FDF793
:1033300053FD07F8070C9DF812009DF813100022AA
:103340000DE000BF03F00707DB08F45C09FA07F79C
:1033500024EA0707F7540635302D00F0CF80002807
:10336000034618BF01230C2D4FF0000738BF01277B
:103370003B420BD1D3B28B4208D0EB08F35C05F093
:103380000607FB4003F001031A4408E0EF0805F0CC
:103390000603F45D09FA03F324EA0303F355002856
:1033A000034618BF01230C2D4FF0000738BF01273B
:1033B0003B4205F101030DD1D7B28F420AD0EF088D
:1033C000F75D03F0070327FA03F303F001031A4440
:1033D00009E000BFEF0803F00703F45D09FA03F307
:1033E00024EA0303F3550028034618BF01230A2DDE
:1033F0004FF0000738BF01273B4205F102030DD112
:10340000D7B28F420AD0DF08F75D03F0060327FA30
:1034100003F303F001031A4409E000BF03F00607B9
:10342000DB08F45C09FA07F724EA0707F7540028D9
:10343000034618BF0123092D4FF0000738BF0127AD
:103440003B4205F103030DD1D7B28F420AD0DF080A
:10345000F75D03F0070327FA03F303F001031A44AF
:1034600009E000BF03F00707DB08F45C09FA07F77F
:1034700024EA0707F7540028034618BF0123082D44
:103480004FF0000738BF01273B4205F104030DD17F
:10349000D7B28F420AD0DF08F75D03F0060327FAA0
:1034A00003F303F001031A4409E000BF03F0060729
:1034B000DB08F45C09FA07F724EA0707F754002849
:1034C000034618BF0123072D4FF0000738BF01271F
:1034D0003B4205F105037FF435AFD7B28F423FF48D
:1034E00031AFDF08F75D03F0070327FA03F303F0BA
:1034F00001031A440635302D7FF431AF039840F2B2
:103500007004C2F2000444F8080F9AF80010062074
:1035100004F108056426CDE900402846B0220123C5
:1035200002960127FDF758FC9AF8001004F8070CE2
:103530002846FF2201232770CDE9004702964FF06D
:10354000FF0BFDF749FC9AF8001004F8070C4FF048
:10355000000928460022012384F80090CDE90047A5
:103560000296FDF739FC9AF8001004F8070C28467B
:10357000FF22012384F80090CDE900470296FDF771
:103580002BFC9AF8001004F8070C284609220123A6
:1035900084F80090CDE9004702964FF00908FDF746
:1035A0001BFC9AF8001004F8070C2846102201238F
:1035B00084F80090CDE900470296FDF70DFC9AF8DB
:1035C000001004F8070C28461122012384F800900B
:1035D000CDE900470296FDF7FFFB9AF8001004F8CA
:1035E000070C2846242201232770CDE900470296C4
:1035F000FDF7F2FB9AF8001004F8070C2846252284
:10360000012384F800B0CDE9004702964FF0250B66
:10361000FDF7E2FB9AF8001004F8070C2846752223
:10362000012384F80090CDE900470296FDF7D4FB12
:103630009AF8001004F8070C2846FF22012327708F
:10364000CDE900470296FDF7C7FB04F8070C2C20D4
:103650009AF80010207028464E220123CDE9004739
:103660000296FDF7B9FB9AF8001004F8070C2846FB
:103670004822012384F80090CDE900470296FDF727
:10368000ABFB04F8070C20209AF8001020702846A5
:1036900030220123CDE900470296FDF79DFB9AF801
:1036A000001004F8070C2846FF22012384F800903C
:1036B000CDE900470296FDF78FFB9AF8001004F859
:1036C000070C28463022012384F80080CDE900470A
:1036D0000296FDF781FB9AF8001004F8070C2846C3
:1036E0005422012384F80090CDE900470296FDF7AB
:1036F00073FB04F8070C04209AF800102070284689
:1037000031220123CDE900470296FDF765FB04F85D
:10371000070C03209AF8001020702846322201235B
:10372000CDE9004702964FF03208FDF755FB04F84B
:10373000070C83209AF800102070284640220123AD
:10374000CDE900470296FDF747FB9AF8001004F810
:10375000070C28464622012384F800B0CDE9004733
:103760000296FDF739FB9AF8001004F8070C28467A
:103770006022012384F80090CDE900470296FDF70E
:103780002BFB9AF8001004F8070C28462722012387
:1037900084F80090CDE900470296FDF71DFB04F880
:1037A000070C9AF8001006202070284650220123AA
:1037B000CDE900470296FDF70FFB9AF8001004F8D8
:1037C000070C28465122012384F80090CDE90047D8
:1037D0000296FDF701FB04F8070C96209AF80010FA
:1037E0002070284652220123CDE900470296FDF7BA
:1037F000F3FA04F8070C08209AF800102070284605
:1038000056220123CDE900470296FDF7E5FA04F8B8
:10381000070C9AF800103020207028465722012308
:10382000CDE900470296FDF7D7FA9AF8001004F8A0
:10383000070C28466122012384F80090CDE9004757
:103840000296FDF7C9FA9AF8001004F8070C28460A
:103850006222012384F80090CDE900470296FDF72B
:10386000BBFA9AF8001004F8070C284664220123DA
:1038700084F80090CDE900470296FDF7ADFA9AF87A
:10388000001004F8070C28466522012384F80090F4
:10389000CDE900470296FDF79FFA04F8070CA02037
:1038A0009AF800102070284666220123CDE90047CF
:1038B0000296FDF791FA9AF8001004F8070C2846D2
:1038C000FF2201232770CDE900470296FDF784FA15
:1038D0009AF8001004F8070C28462222012384F8E5
:1038E0000080CDE900470296FDF776FA04F8070C50
:1038F00014209AF800102070284647220123CDE9B1
:1039000000470296FDF768FA9AF8001004F8070CD1
:103910004FF0FF0828464922012384F80080CDE9B2
:1039200000470296FDF758FA9AF8001004F8070CC1
:1039300028464A22012384F80090CDE900470296E8
:10394000FDF74AFA9AF8001004F8070C2846FF22FF
:10395000012384F80090CDE900470296FDF73CFA78
:1039600004F8070C0A209AF80010207028467A22E2
:103970000123CDE900470296FDF72EFA9AF80010D0
:1039800004F8070C28467B22012384F80090CDE937
:1039900000470296FDF720FA04F8070C21209AF858
:1039A00000102070284678220123CDE900470296B6
:1039B000FDF712FA9AF8001004F8070C2846FF22C7
:1039C00001232770CDE900470296FDF705FA04F8B8
:1039D000070C34209AF80010207028462322012377
:1039E000CDE900470296FDF7F7F99AF8001004F8C0
:1039F000070C28464222012384F80090CDE90047B5
:103A00000296FDF7E9F99AF8001004F8070C284629
:103A10004422012384F80080CDE900470296FDF797
:103A2000DBF904F8070C26209AF8001020702846CD
:103A300045220123CDE900470296FDF7CDF99AF81A
:103A4000001004F8070C4FF0050B2846462201230E
:103A500084F800B0CDE900470296FDF7BDF99AF869
:103A6000001004F8070C4FF04008284640220123BC
:103A700084F80080CDE900470296FDF7ADF904F81F
:103A8000070C9AF800100620207028460E22012309
:103A9000CDE900470296FDF79FF904F8070C1A20BC
:103AA0009AF800102070284620220123CDE9004713
:103AB0000296FDF791F99AF8001004F8070C2846D1
:103AC0004322012384F80080CDE900470296FDF7E8
:103AD00083F99AF8001004F8070C2846FF22012306
:103AE00084F80090CDE900470296FDF775F904F8D7
:103AF000070C9AF800100320207028463422012376
:103B0000CDE900470296FDF767F904F8070C9AF82B
:103B10000010442020702846352201234FF0000871
:103B2000CDE900470296FDF757F99AF8001004F81E
:103B3000070C2846FF2201232770CDE90047029693
:103B4000FDF74AF99AF8001004F8070C4FF0040941
:103B500028463122012384F80090CDE900470296DF
:103B6000FDF73AF904F8070C9AF8001009202070C4
:103B700028464B220123CDE900470296FDF72CF998
:103B80009AF8001004F8070C28464C22012384F808
:103B900000B0CDE900470296FDF71EF99AF8001033
:103BA00004F8070C28464D22012384F800904FF0BA
:103BB0000409CDE900470296FDF70EF99AF80010C6
:103BC00004F8070C2846FF22012384F80080CDE981
:103BD00000470296FDF700F99AF8001004F8070C68
:103BE00028464422012384F80080CDE9004702964C
:103BF000FDF7F2F804F8070C9AF800102020207066
:103C0000284645220123CDE900470296FDF7E4F856
:103C100004F8070C9AF80010082020702846472264
:103C20000123CDE900470296FDF7D6F804F8070C0A
:103C300028209AF800102070284648220123CDE958
:103C400000470296FDF7C8F89AF8001004F8070C30
:103C500028466722012384F80080CDE900470296B8
:103C6000FDF7BAF89AF8001004F8070C28467022FD
:103C7000012384F80090CDE900470296FDF7ACF8E7
:103C80009AF8001004F8070C2846712201232770C7
:103C9000CDE900470296FDF79FF804F8070CFE20D7
:103CA0009AF800102070284672220123CDE90047BF
:103CB0000296FDF791F89AF8001004F8070C2846D0
:103CC0007622012384F80080CDE900470296FDF7B3
:103CD00083F89AF8001004F8070C2846772201238D
:103CE00084F80080CDE900470296FDF775F89AF850
:103CF000001004F8070C2846FF2201232770CDE9A5
:103D000000470296FDF768F89AF8001004F8070CCF
:103D100028460D2201232770CDE900470296FDF7C2
:103D20005BF89AF8001004F8070C2846FF220123DC
:103D300084F80080CDE900470296FDF74DF89AF827
:103D4000001004F8070C2846802201232770CDE9D3
:103D500000470296FDF740F804F8070CF8209AF89F
:103D600000102070284601220123CDE90047029669
:103D7000FDF732F89AF8001004F8070C2846FF22E5
:103D800001232770CDE900470296FDF725F89AF840
:103D9000001004F8070C28468E2201232770CDE975
:103DA00000470296FDF718F89AF8001004F8070C7F
:103DB0002846002201232770CDE900470296FDF72F
:103DC0000BF89AF8001004F8070C2846FF2201238C
:103DD00084F80080CDE900470296FCF7FDFF9AF8D1
:103DE000001004F8070C28468022012384F8008084
:103DF000CDE900470296FCF7EFFF9AF8001004F8AF
:103E0000070C28460A22012384F80090CDE90047D8
:103E10000296FCF7E1FF9AF8001004F8070C41F055
:103E20000101284684220123CDE900470296FCF7D0
:103E30002DFE217804F8070C01F0EF009AF800102D
:103E40002070284684220123CDE900470296FCF722
:103E5000C3FF9AF8001004F8070C28460B22012330
:103E60002770CDE900470296FCF7B6FF04F8070C6F
:103E7000FEF744FE6060E8209AF8001020702846A3
:103E800001220123CDE900470296FCF7A5FF6168F6
:103E900004F8070C084601F02FFB9AF8001028469A
:103EA000012201232770CDE900470296FCF794FF19
:103EB00004F8070C402000F0C1FF70B340F2700519
:103EC000C2F2000502202C469AF8001004F8080FF0
:103ED00004F1080001220123CDE901760094FCF7EA
:103EE0007BFF04F8070C00204FF0000800F0A6FF4D
:103EF00098B1E8209AF8001005F8080F64204FF0F8
:103F00000108029005F10800012201230095CDF877
:103F10000480FCF761FF05F8070C404605B0BDE8DA
:103F2000F08F00BF4FF00008404605B0BDE8F08FAD
:103F300090B0FDF743F800240120CDE90B44CDE912
:103F4000094406900A904FF4E0104FF480310225A6
:103F50000F9006A8CDE90714CDE90D51FDF7B6F98C
:103F600020B1EFF3108072B6FEE700BF0F20CDE95D
:103F700001054FF48060CDE9040401A802210394F7
:103F8000FDF7B2F820B1EFF3108072B6FEE700BF84
:103F900040F60048C4F20108FEF70CFCFEF772FC84
:103FA000FEF722FDFEF752FDFEF74AFC01F062F833
:103FB0004FF6000B40F244174FF47A70C4F2F95BED
:103FC000C2F200071DE000BF40464FF480510122BD
:103FD000FCF7A6FA40464FF400510122FCF7A0FA84
:103FE00040464FF480410122FCF79AFA40464FF4D4
:103FF00000410122FCF794FA386800214163816393
:10400000C820FCF771F90DE00020772A38BF0120A5
:104010000022BAF15A0F38BF012210430843C007EB
:1040200000F0228640F2DC010020C2F20001C1E96A
:10403000030001F015F9FFF70DF80646FFF710F839
:104040000024772888BF0124FFF710F880B26F287A
:104050004FF0000038BF01205A2EC0F0E18020430D
:1040600000F0DE80FEF7FCFF093804B2FEF7FEFF29
:1040700005B2601B01F05AFE064620F000404FF0EA
:10408000814101F0DBFD40F2DC09002808BF064653
:10409000C2F20009B5F57A7F4FF00001A8BF0E46C5
:1040A000D9E902A0B4F57A7FD846D9E900B4A8BF0F
:1040B0000E46314601F028FDD9F810100746C9F820
:1040C0000C00304601F092FF054620463946C9F8FB
:1040D000106042F20F7901F0BDFE044658463146A9
:1040E000C34601F0B7FE214601F00EFD04465046DE
:1040F000294601F0AFFE214601F006FD0646404686
:10410000314601F073FF01F0F5FD42F20F740746EE
:104110004845B8BF04464DF6F100CFF6FF7040F6B3
:1041200000488442C4F20108D8BF044640464FF418
:104130008051012F08DB0122FCF7F2F940464FF4D1
:10414000005100220BE000BF0022FCF7E9F94046D5
:104150004FF40051B7F1FF3F56DD00220024FCF779
:10416000DFF940F24417C2F2000738685946446349
:10417000304601F0C9FC01F0BDFD42F20F74064665
:104180004845B8BF04464DF6F100CFF6FF708442B3
:10419000D8BF044640464FF48041012E08DB01227F
:1041A000FCF7BEF940464FF4004100220BE000BF8F
:1041B0000022FCF7B5F940464FF40041B6F1FF3F4D
:1041C00028DD00220024FCF7ABF938688463052061
:1041D000FCF78AF801F044F8FEF73CFF0446FEF7CE
:1041E0003FFF0025772888BF0125FEF73FFF80B2FB
:1041F0006F284FF0000038BF01205A2C10D32843FD
:104200007FF430AF0CE000BF0122FCF789F9644273
:10421000A7E700BF0122FCF783F96442D5E700BF9E
:1042200040464FF480510122FCF77AF940464FF4A2
:1042300000510122FCF774F940464FF480410122FD
:10424000FCF76EF940464FF400410122FCF768F993
:1042500038680021416381634FF4FA70FCF744F839
:1042600000F0FEFFFEF7F6FE00258246592888BFC3
:104270000125FEF7F5FE00240746762888BF0124B5
:10428000FEF7F4FE6D284FF0000145EA040288BFF6
:104290000121D30708BF002970D083B200266E2BFE
:1042A00038BF01263243D20700F06E81BAB2002730
:1042B000772A38BF01272F4347EA0106F60700F0A7
:1042C00051826E2B4FF0000338BF01233B4300F0B7
:1042D00037830023BAF15A0F38BF0123234340F23A
:1042E0004417DB07C2F200077FF48EAE6E28FFF49E
:1042F0008BAE6420FBF7F8FF40F28C15C2F200058C
:104300002868002240F2D4164262C2F200063168E8
:1043100041F63F7941F6573A4A6200BF406A0122AE
:1043200000B2002848BF4042496A09B2002948BF8C
:1043300049420C1840464FF48051FCF7F1F8E0096F
:10434000182800F2EB8340464FF400510022FCF79E
:10435000E7F838684FF48041C0F8349040460122B5
:10436000FCF7DEF840464FF400410022FCF7D8F895
:104370003868C0F8389028683168CFE7C820FBF764
:10438000B3FF40F28C15C2F200052868002240F20B
:10439000D4164262C2F20006316840F244174A6203
:1043A000406AC2F2000701B280EAE130A0EBE130DE
:1043B00080B240F63301884241F6573940F6340A5C
:1043C00028D800BF40464FF480510122FCF7A8F8DE
:1043D00040464FF400510022FCF7A2F838684FF431
:1043E0008041C0F8349040460022FCF799F84046DE
:1043F0004FF400410122FCF793F83868C0F8389078
:104400002868406A01B280EAE130A0EBE13080B276
:104410005045D7D340464FF480510122FCF780F835
:1044200040464FF400510122FCF77AF840464FF421
:1044300080410122FCF774F840464FF4004101220C
:10444000FCF76EF838680024446384636420FBF74B
:104450004BFF2868446231684C62406A41F63F7401
:1044600000B2002848BF4042496A09B2002948BF4B
:104470004942084400097C282CD800BF40464FF42C
:1044800080510022FCF74CF840464FF400510122C5
:10449000FCF746F838684FF48041446340460022F8
:1044A000FCF73EF840464FF400410122FCF738F893
:1044B0003868846328683168406A00B2002848BFC1
:1044C0004042496A09B2002948BF49420844B0F550
:1044D000FA6FD3D340464FF480510122FCF720F805
:1044E00040464FF400510122FCF71AF840464FF4C1
:1044F00080410122FCF714F840464FF400410122AC
:10450000FCF70EF838680024446384636420FBF7EA
:10451000EBFE2868446231684C62406A01B280EA6E
:10452000E130A0EBE13080B240F6330188423FF643
:104530004BAD00BF40464FF480510122FBF7F0FF26
:1045400040464FF400510022FBF7EAFF38684FF471
:104550008041C0F8349040460022FBF7E1FF40461E
:104560004FF400410122FBF7DBFF3868C0F83890B8
:104570002868406A01B280EAE130A0EBE13080B205
:104580005045D7D320E500BF6420FBF7ADFE40F2D5
:104590008C15C2F200052868002240F2D41642624F
:1045A000C2F20006316840F24417C2F2000741F639
:1045B0003F7941F6573A4A62406A012200B2002828
:1045C00048BF4042496A09B2002948BF49420C1815
:1045D00040464FF48051FBF7A3FFE00918281BD891
:1045E00040464FF400510022FBF79AFF38684FF421
:1045F0008041C0F8349040460122FBF791FF4046CD
:104600004FF400410022FBF78BFF3868C0F8389068
:1046100028683168D0E700BF40464FF400510122BE
:10462000FBF77EFF40464FF480410122FBF778FF05
:1046300040464FF400410122FBF772FF3868002426
:1046400044638463C820FBF74FFE286844623168E6
:104650004C62406A40F6340401B280EAE130A0EBDB
:10466000E13080B240F63301884227D840464FF40B
:1046700080510122FBF754FF40464FF400510022C5
:10468000FBF74EFF38684FF48041C0F834A0404635
:104690000022FBF745FF40464FF400410122FBF7A3
:1046A0003FFF3868C0F838A02868406A01B280EA45
:1046B000E130A0EBE13080B2A042D7D340464FF4C6
:1046C00080510122FBF72CFF40464FF4005101229C
:1046D000FBF726FF40464FF480410122FBF720FF05
:1046E00040464FF400410122FBF71AFF38680024CE
:1046F00044638463C820FBF7F7FD2868446231688F
:104700004C6200BF406A012200B2002848BF40420C
:10471000496A09B2002948BF49420C1840464FF483
:104720008051FBF7FDFEE00918283FF653AC4046E8
:104730004FF400510022FBF7F3FE38684FF480413C
:10474000C0F8349040460122FBF7EAFE40464FF4A1
:1047500000410022FBF7E4FE3868C0F83890286872
:104760003168CFE76420FBF7BFFD40F28C15C2F241
:1047700000052868002240F2D4164262C2F2000608
:10478000316840F24417C2F2000741F63F7941F622
:10479000573A4A62406A012200B2002848BF4042AC
:1047A000496A09B2002948BF49420C1840464FF4F3
:1047B0008051FBF7B5FEE00918281BD840464FF49E
:1047C00000510022FBF7ACFE38684FF48041C0F87E
:1047D000349040460122FBF7A3FE40464FF40041CF
:1047E0000022FBF79DFE3868C0F8389028683168D1
:1047F000D0E700BF40464FF400510122FBF790FE86
:1048000040464FF480410122FBF78AFE40464FF4B8
:1048100000410122FBF784FE38680024446384636E
:10482000C820FBF761FD2868446230684462406A32
:1048300040F6340401B280EAE130A0EBE13080B20E
:1048400040F63301884227D840464FF48051002279
:10485000FBF766FE40464FF400510122FBF760FE75
:1048600038684FF48041C0F834A040460122FBF77D
:1048700057FE40464FF400410022FBF751FE3868D6
:10488000C0F838A03068406A01B280EAE130A0EB9D
:10489000E13080B2A042D7D340464FF4805101228C
:1048A000FBF73EFE40464FF400510122FBF738FE75
:1048B00040464FF480410122FBF732FE40464FF460
:1048C00000410122FBF72CFE386800244463846316
:1048D000C820FBF709FD2868446231684C6200BFBC
:1048E000406A012200B2002848BF4042496A09B22A
:1048F000002948BF49420C1840464FF48051FBF74D
:104900000FFEE00918283FF665AB40464FF4005112
:104910000022FBF705FE38684FF48041C0F8349060
:1049200040460122FBF7FCFD40464FF400410022C7
:10493000FBF7F6FD3868C0F8389028683168CFE793
:104940006420FBF7D1FC40F28C15C2F20005286808
:10495000002240F2D4164262C2F20006316840F2F0
:104960004417C2F2000741F63F7941F6573A4A62CE
:10497000406A012200B2002848BF4042496A09B299
:10498000002948BF49420C1840464FF48051FBF7BC
:10499000C7FDE00918281BD840464FF400510022FB
:1049A000FBF7BEFD38684FF48041C0F834904046B4
:1049B0000122FBF7B5FD40464FF400410022FBF712
:1049C000AFFD3868C0F8389028683168D0E700BF7C
:1049D00040464FF400510122FBF7A2FD40464FF440
:1049E00080410122FBF79CFD40464FF4004101222B
:1049F000FBF796FD3868002444638463C820FBF706
:104A000073FC2868446231684C62406A40F63404A2
:104A100001B280EAE130A0EBE13080B240F6330130
:104A2000884227D840464FF480510122FBF778FD99
:104A300040464FF400510022FBF772FD38684FF4F6
:104A40008041C0F834A040460022FBF769FD404693
:104A50004FF400410122FBF763FD3868C0F838A02D
:104A60002868406A01B280EAE130A0EBE13080B210
:104A7000A042D7D340464FF480510122FBF750FDAE
:104A800040464FF400510122FBF74AFD40464FF4E7
:104A900080410122FBF744FD40464FF400410122D2
:104AA000FBF73EFD3868002444638463C820FBF7AD
:104AB0001BFC2868446231684C6200BF406A0122D6
:104AC00000B2002848BF4042496A09B2002948BFE5
:104AD00049420C1840464FF48051FBF721FDE00994
:104AE00018283FF677AA40464FF400510022FBF702
:104AF00017FD38684FF48041C0F8349040460122D9
:104B0000FBF70EFD40464FF400410022FBF708FD85
:104B10003868C0F8389028683168CFE740464FF4CD
:104B200000510122FBF7FCFC40464FF4804101227A
:104B3000FBF7F6FC40464FF400410122FBF7F0FC86
:104B40003868002444638463C820FBF7CDFB2868E1
:104B5000446231684C62406A40F6340401B280EA33
:104B6000E130A0EBE13080B240F63301884227D833
:104B700040464FF480510122FBF7D2FC40464FF4EF
:104B800000510022FBF7CCFC38684FF48041C0F89C
:104B900034A040460022FBF7C3FC40464FF40041DE
:104BA0000122FBF7BDFC3868C0F838A02868406ACD
:104BB00001B280EAE130A0EBE13080B2A042D7D36D
:104BC00040464FF480510122FBF7AAFC40464FF4C7
:104BD00000510122FBF7A4FC40464FF48041012222
:104BE000FBF79EFC40464FF400410122FBF798FC86
:104BF0003868002444638463C820FBF775FB286889
:104C0000446231684C6200BF406A012200B2002851
:104C100048BF4042496A09B2002948BF49420C18BE
:104C200040464FF48051FBF77BFCE00918283FF623
:104C3000D1A940464FF400510022FBF771FC3868BF
:104C40004FF48041C0F8349040460122FBF768FCE5
:104C500040464FF400410022FBF762FC3868C0F880
:104C6000389028683168CFE76420FBF73DFB40F2BD
:104C70008C15C2F200052868002240F2D416426268
:104C8000C2F20006316841F63F7941F6573A4A626E
:104C9000406A012200B2002848BF4042496A09B276
:104CA000002948BF49420C1840464FF48051FBF799
:104CB00037FCE00918281BD840464FF40051002269
:104CC000FBF72EFC38684FF48041C0F83490404622
:104CD0000122FBF725FC40464FF400410022FBF780
:104CE0001FFC3868C0F8389028683168D0E700BFEA
:104CF00040464FF400510122FBF712FC40464FF4AE
:104D000080410122FBF70CFC40464FF40041012298
:104D1000FBF706FC3868002444638463C820FBF773
:104D2000E3FA2868446230684462406A40F634041A
:104D300001B280EAE130A0EBE13080B240F633010D
:104D4000884227D840464FF480510022FBF7E8FB09
:104D500040464FF400510122FBF7E2FB38684FF464
:104D60008041C0F834A040460122FBF7D9FB404601
:104D70004FF400410022FBF7D3FB3868C0F838A09D
:104D80003068406A01B280EAE130A0EBE13080B2E5
:104D9000A042D7D340464FF480510122FBF7C0FB1D
:104DA00040464FF400510122FBF7BAFB40464FF456
:104DB00080410122FBF7B4FB40464FF40041012241
:104DC000FBF7AEFB3868002444638463C820FBF71C
:104DD0008BFA2868446231684C6200BF406A012245
:104DE00000B2002848BF4042496A09B2002948BFC2
:104DF00049420C1840464FF48051FBF791FBE00903
:104E000018283FF6E7A840464FF400510022FBF770
:104E100087FB38684FF48041C0F834904046012247
:104E2000FBF77EFB40464FF400410022FBF778FB86
:104E30003868C0F8389028683168CFE72DE9F04726
:104E400084B040F27006C2F2000640F0010037461E
:104E500040F20C0AC2F2000A07F8080F9AF8001094
:104E600007F108054FF064080124284600220123B9
:104E7000CDE90074CDF808804FF00009FBF7ACFFD6
:104E800007F8070CFBF752FB9AF8001027F8020C02
:104E900041F00101284613220123CDE90074CDF829
:104EA0000880FBF7F3FD397807F8070C490723D092
:104EB00006F8084F9AF8001006F1080528460B225C
:104EC0000123CDE90064CDF80880FBF785FF9AF84F
:104ED000001006F8070C28460022012386F80090EF
:104EE000CDE90064CDF80880FBF776FF06F8070CE3
:104EF000204604B0BDE8F08706F1080706F110056A
:104F000011E000BF9AF80000132240F0010128468A
:104F10000123CDE90074CDF80880FBF7B7FD317AA5
:104F200070704907C4D1B0880028EBD0FBF7FEFAB7
:104F3000F18880B2B288401A9042E3DD0024204616
:104F400004B0BDE8F08700002DE9F04786B0804648
:104F5000FBF7ECFA40F20C09C2F2000940F27006CD
:104F600099F80010C2F200064FF0640A012706F11A
:104F7000080406F1100541F00101F080CDE9004779
:104F800006E000BF99F80000CDE9004740F00101BC
:104F9000284613220123CDF808A0FBF777FD317ACC
:104FA0007070490712D1B0880028EBD0FBF7BEFA29
:104FB000F18880B2B288401A9042E3DD012030705F
:104FC0004FF6FF75284606B0BDE8F08799F8000057
:104FD000B8F1000F40F001014FF0640728D00C2019
:104FE00003AACDE900202846142201230297FBF7EB
:104FF0004DFD9DF80C10BDF80E20C90888F808106A
:1050000011BABDF81220090CA8F8061011BABDF8A3
:105010001420090CA8F8021011BABDF81620090CCA
:10502000A8F8041011BA0D0CA8F800500AE000BF4F
:105030000220CDE9004028461E2201230297FBF7FB
:1050400025FD3589012206F8082F99F8001006F889
:10505000070C6420CDE9012006F108000B22012392
:105060000096FBF7B9FE06F8070C284606B0BDE827
:10507000F0870000F0B581B000F052F840F244141F
:10508000C2F20004204600210027FCF7DFFF204683
:105090000421FCF7DBFF40F28C15C2F20005284624
:1050A0003C21FCF7F3FD40F2D416C2F20006304674
:1050B0003C21FCF7EBFD2A6840F2DC0057624CF61D
:1050C000CD41326840F60045C2F20000C4F27411CE
:1050D0000026C4F201054FF07C53C4F24816576213
:1050E00080E8CA00076128464FF480510122FBF78F
:1050F00017FA28464FF400510122FBF711FA28460F
:105100004FF480410122FBF70BFA28464FF400418F
:105110000122FBF705FA20684763876301B0F0BD01
:10512000F0B583B064204FF6FF77642600F0ECFA08
:1051300040F2F0040120C2F200048DF80B000DF1E2
:105140000B022046E02101230096FBF7B1FB0A2069
:10515000FBF7CAF82046522102223223FBF79EFABF
:1051600040F2D406C2F2000610B1778014E000BF0E
:1051700040F2F001C2F200010120FDF77DFF58B1BD
:105180000020C4F2FA4000F085FA45F2F05000F039
:10519000B3F9002000F0BEFA40F2F0040220C2F29F
:1051A00000048DF80B0064250DF10B022046E02170
:1051B00001230095FBF77CFB0A20FBF795F82046BE
:1051C000522102223223FBF769FA08B1B78013E0BB
:1051D00040F2F001C2F200010120FDF74DFF58B18D
:1051E0000020C4F2FA4000F055FA45F2F05000F009
:1051F00083F9002000F08EFA40F2F0040420C2F29D
:1052000000048DF80B0064250DF10B022046E0210F
:1052100001230095FBF74CFB0A20FBF765F82046BD
:10522000522102223223FBF739FA18B1F78003B07A
:10523000F0BD00BF40F2F001C2F200010120FDF715
:105240001BFF58B10020C4F2FA4000F023FA45F2E7
:10525000F05000F051F9002000F05CFA03B0F0BD0E
:105260002DE9F04184B040F2F0050120C2F20005C2
:105270008DF80F0064270DF10F022846E02101236D
:105280004FF6FF740097FBF713FB284652210222CA
:105290000A234FF00208FBF701FA40F2D406002877
:1052A000C2F200064FF6FF7034D040F2F005C2F2B1
:1052B000000570800DF10F022846E02101238DF8D2
:1052C0000F800097FBF7F4FA2846522102220A23A6
:1052D000FBF7E4F900284FF6FF7035D040F2F005F7
:1052E000B0800420C2F200058DF80F0064270DF194
:1052F0000F022846E02101230097FBF7D9FA284640
:10530000522102220A23FBF7C9F9B8B3F48004B092
:10531000BDE8F08101A8FFF717FEA0424CD041F68E
:10532000FD718842C1D800F019FD47F2A401C3F60F
:105330007D7100F08FFD0021CCF2901100F0E4FBB4
:1053400000F0D8FCB1E700BF01A8FFF7FDFDA042C7
:1053500046D041F6FD718842C0D800F0FFFC47F20C
:10536000A401C3F67D7100F075FD0021CCF290110F
:1053700000F0CAFB00F0BEFCB0E700BF01A8FFF7D9
:10538000E3FDA04240D041F6FD7188420ED800F006
:10539000E5FC47F2A401C3F67D7100F05BFD00213E
:1053A000CCF2901100F0B0FB00F0A4FC0446F480B5
:1053B00004B0BDE8F08100BF40F2F005C2F2000584
:1053C00001202946FDF758FEC0BB3078013030700F
:1053D000C820FAF789FF30780628F1D327E000BF0C
:1053E00040F2F005C2F2000501202946FDF744FE17
:1053F000002843D1307801303070C820FAF774FFAC
:1054000030780528F0D912E040F2F005C2F200052C
:1054100001202946FDF730FE00284FD130780130B9
:105420003070C820FAF760FF30780528F0D94FF4C3
:105430007A70FAF759FFFDF74BFB00BF0020C4F26A
:10544000FA4000F027F945F2F05000F055F800203E
:10545000002500F05FF9307805284FF6FF703FF621
:1054600024AF32203570FAF73FFF01A8FFF76CFD3B
:1054700041F6FD7188423FF618AF54E70020C4F2B0
:10548000FA4000F007F945F2F05000F035F800203E
:10549000002500F03FF9307805284FF6FF703FF601
:1054A0001DAF32203570FAF71FFF01A8FFF74CFD42
:1054B00041F6FD7188423FF611AF4EE70020C4F27D
:1054C000FA4000F0E7F845F2F05000F015F800203F
:1054D000002500F01FF9307805283FF617AF32207D
:1054E0003570FAF701FF01A8FFF72EFD41F6FD71B7
:1054F00088427FF64CAF59E72DE9F04F8BB08146DB
:1055000044F62060814503D200200BB0BDE8F08F47
:1055100040F20C08C2F2000840F2700A98F800103D
:10552000C2F2000A01200AF108026427CDE9002036
:105530000AF1100041F00101012201230297FBF75B
:10554000A5FA9AF808608AF80100F009C6F3001578
:10555000C6F3C007C6F38004C6F3801B8DF82B008A
:105560000DF1270003A98DF827508DF829708DF8CB
:1055700028408DF82AB0FDF71FFB0699002D01F693
:10558000363008BF40F6E800002F4DD1002C1CBF7C
:10559000084400F5257071B2B1F1FF3F4CDC07996A
:1055A000BBF1000F014418BF01F5257000F2262061
:1055B0008145A9D39DF80E1043F62F2251434FF495
:1055C000FA7202EB012144F6D352C1F26202A9EB56
:1055D00000004FF47A73A1FB02125843910900EBCB
:1055E000D210B0FBF1F0BDF81210BBF1000F18BFE4
:1055F0000844010424D080B2B0F5807FA0F10101FD
:105600004FF000002CD900BFB1F5007F1AD3B1F5DF
:10561000806F1BD3B1F5006F1CD30A090430B1F5BC
:10562000805F1146F0D218E000EB410000F26450B8
:1056300071B2B1F1FF3FB2DD01200BB0BDE8F08FD8
:1056400000200EE04A0840F0010006E08A0840F021
:10565000020002E0CA0840F0030080B200021146D6
:10566000084498F800102AF8080F64200222CDE9B7
:1056700000A202900AF1080071220123FBF7ACFBA3
:10568000014601200AF8071CCAF804900BB0BDE8D7
:10569000F08F000070B584B000210546002400F0B2
:1056A000E2FA0646284600F003FA56BB47F2A40287
:1056B0004FF6D773C0F63D22C4F27F0300F094FA90
:1056C000F8B928464FF0864100F0C4FB00F012FB09
:1056D00040F2700540F20C01C2F20005C2F2000176
:1056E000097825F8080F64200222CDE900520290C3
:1056F00005F10800442201230124FBF76DFB05F8A6
:10570000070C204604B070BD40F27001C2F20001E7
:10571000888070472DE9F04F83B040F27004C2F2E8
:1057200000044FF00108264640F20C0AC2F2000ABB
:1057300006F8088F9AF8001006F1080507464FF0A2
:105740006409284680220123CDE90068CDF808903D
:10575000FBF742FB9AF8001006F8070C2846FF22D8
:10576000012386F80080CDE90068CDF80890FBF7AA
:1057700033FB9AF8001006F8070C4FF0000B284690
:105780000022012386F800B0CDE90068CDF808902A
:10579000FBF722FB06F8070C16F8060C9AF8001027
:1057A0003070284691220123CDE90068CDF8089099
:1057B000FBF712FB9AF8001006F8070C28460022A7
:1057C000012386F80080CDE90068CDF80890FBF74A
:1057D00003FB9AF8001006F8070C2846FF22012365
:1057E00086F800B0CDE90068CDF80890FBF7F4FA30
:1057F0009AF8001006F8070C28468022012386F844
:1058000000B0CDE90068CDF80890FBF7E5FA06F89E
:10581000070C4FF002062FB39AF8000004F11005B0
:1058200004F1080B40F001012846F8220123CDE9DC
:1058300000B6CDF80890FBF729F92189607001299D
:1058400098BF414607FB01F09AF80010A0600426BB
:10585000284604220123CDE900B6CDF80890FBF7D5
:10586000BBFA60709AF8001004F8086F04F10800A1
:1058700000220123CDE901890094FBF7ADFA04F879
:10588000070C03B0BDE8F08F491058BFC1F140418B
:105890005B1058BFC3F140438B42EFF30080704769
:1058A00051EA030C17D41CF5801F58BFBCF5801FAC
:1058B00000F10680994218BF704708BF90427047B8
:1058C00007D711F5801F58BF13F5801F19D49942CF
:1058D0007047894270471CF5801F08D5BCF5801FB2
:1058E000F7D58B4218BF704708BF824270474FF40C
:1058F000001C1CEB410F38BF1CEB430F01D28B4245
:10590000704770B500F080F8922449004FF00051C4
:105910004FF08053FFF7B8BF51EA030C17D41CF5C2
:10592000801F58BFBCF5801F00F10680994218BF48
:10593000704708BF9042704707D711F5801F58BFC6
:1059400013F5801F19D499427047894270471CF59E
:10595000801F08D5BCF5801FF7D58B4218BF704754
:1059600008BF824270474FF4001C1CEB410F38BF48
:105970001CEB430F01D28B42704770B500F044F826
:10598000922449004FF080514FF00053FFF77CBF45
:1059900051EA030C17D41CF5801F58BFBCF5801FBB
:1059A00000F10680994218BF704708BF90427047C7
:1059B00007D711F5801F58BF13F5801F19D49942DE
:1059C0007047894270471CF5801F08D5BCF5801FC1
:1059D000F7D58B4218BF704708BF824270474FF41B
:1059E000001C1CEB410F38BF1CEB430F01D28B4254
:1059F000704770B500F008F8922449004FF000514C
:105A00004FF08053FFF740BF0EF1020E2EF0030E51
:105A10005EF8046B364205D4012A43EB030515F505
:105A2000001F12D8012841EB010C1CF5001F0CD8F7
:105A30000ED14FEAD17C0CEB4C0C0CF1020C15F59D
:105A4000001F08BF4CEBD37C04E04FF0080C01E0D2
:105A50004FEAD37C0CEB4C0526FA05F606F0070658
:105A6000B6F1040C06D20EEB860CBDE870404CF08B
:105A7000010C6047DFE80CF0090B02024FF0004117
:105A8000A1F500214FF0000070BD19461046012815
:105A900051EB010418BFD4F5001484BF002001F0BD
:105AA000004170BD0808A0F500114FEA31017047B0
:105AB00043004FEAD30C4FEA3C0C43401FBF400762
:105AC0000CF1605113F0FE4F70471CF0006F03D1D2
:105AD0000CF00041002070470CF0004343EA507086
